{
  "address": "0xC0D1a6436BfAaDDd6d9f19974CCF9d323DaAb460",
  "abi": [
    {
      "inputs": [
        {
          "internalType": "address",
          "name": "vrfCoordinatorV2",
          "type": "address"
        },
        {
          "internalType": "uint256",
          "name": "entranceFee",
          "type": "uint256"
        },
        {
          "internalType": "bytes32",
          "name": "gasLane",
          "type": "bytes32"
        },
        {
          "internalType": "uint64",
          "name": "subscriptionId",
          "type": "uint64"
        },
        {
          "internalType": "uint32",
          "name": "callbackGasLimit",
          "type": "uint32"
        },
        {
          "internalType": "uint256",
          "name": "interval",
          "type": "uint256"
        }
      ],
      "stateMutability": "nonpayable",
      "type": "constructor"
    },
    {
      "inputs": [
        {
          "internalType": "address",
          "name": "have",
          "type": "address"
        },
        {
          "internalType": "address",
          "name": "want",
          "type": "address"
        }
      ],
      "name": "OnlyCoordinatorCanFulfill",
      "type": "error"
    },
    {
      "inputs": [],
      "name": "Raffle__NoPlayers",
      "type": "error"
    },
    {
      "inputs": [],
      "name": "Raffle__NotEnoughETHEntered",
      "type": "error"
    },
    {
      "inputs": [],
      "name": "Raffle__NotOpen",
      "type": "error"
    },
    {
      "inputs": [],
      "name": "Raffle__TransferFailed",
      "type": "error"
    },
    {
      "inputs": [
        {
          "internalType": "uint256",
          "name": "currentBalance",
          "type": "uint256"
        },
        {
          "internalType": "uint256",
          "name": "numPlayers",
          "type": "uint256"
        },
        {
          "internalType": "uint256",
          "name": "raffleState",
          "type": "uint256"
        }
      ],
      "name": "Raffle__UpkeepNotNeeded",
      "type": "error"
    },
    {
      "anonymous": false,
      "inputs": [
        {
          "indexed": true,
          "internalType": "address",
          "name": "player",
          "type": "address"
        }
      ],
      "name": "RaffleEnter",
      "type": "event"
    },
    {
      "anonymous": false,
      "inputs": [
        {
          "indexed": true,
          "internalType": "uint256",
          "name": "requestId",
          "type": "uint256"
        }
      ],
      "name": "RequestedRaffleWinner",
      "type": "event"
    },
    {
      "anonymous": false,
      "inputs": [
        {
          "indexed": true,
          "internalType": "enum Raffle.RaffleState",
          "name": "state",
          "type": "uint8"
        }
      ],
      "name": "StateRaffle",
      "type": "event"
    },
    {
      "anonymous": false,
      "inputs": [
        {
          "indexed": true,
          "internalType": "address",
          "name": "winner",
          "type": "address"
        }
      ],
      "name": "WinnerPicked",
      "type": "event"
    },
    {
      "inputs": [
        {
          "internalType": "bytes",
          "name": "",
          "type": "bytes"
        }
      ],
      "name": "checkUpkeep",
      "outputs": [
        {
          "internalType": "bool",
          "name": "upkeepNeeded",
          "type": "bool"
        },
        {
          "internalType": "bytes",
          "name": "",
          "type": "bytes"
        }
      ],
      "stateMutability": "nonpayable",
      "type": "function"
    },
    {
      "inputs": [],
      "name": "enterRaffle",
      "outputs": [],
      "stateMutability": "payable",
      "type": "function"
    },
    {
      "inputs": [],
      "name": "getEntranceFee",
      "outputs": [
        {
          "internalType": "uint256",
          "name": "",
          "type": "uint256"
        }
      ],
      "stateMutability": "view",
      "type": "function"
    },
    {
      "inputs": [],
      "name": "getInterval",
      "outputs": [
        {
          "internalType": "uint256",
          "name": "",
          "type": "uint256"
        }
      ],
      "stateMutability": "view",
      "type": "function"
    },
    {
      "inputs": [],
      "name": "getLatestTimeStamp",
      "outputs": [
        {
          "internalType": "uint256",
          "name": "",
          "type": "uint256"
        }
      ],
      "stateMutability": "view",
      "type": "function"
    },
    {
      "inputs": [],
      "name": "getNumWords",
      "outputs": [
        {
          "internalType": "uint256",
          "name": "",
          "type": "uint256"
        }
      ],
      "stateMutability": "pure",
      "type": "function"
    },
    {
      "inputs": [],
      "name": "getNumberOfPlayers",
      "outputs": [
        {
          "internalType": "uint256",
          "name": "",
          "type": "uint256"
        }
      ],
      "stateMutability": "view",
      "type": "function"
    },
    {
      "inputs": [
        {
          "internalType": "uint256",
          "name": "index",
          "type": "uint256"
        }
      ],
      "name": "getPlayer",
      "outputs": [
        {
          "internalType": "address",
          "name": "",
          "type": "address"
        }
      ],
      "stateMutability": "view",
      "type": "function"
    },
    {
      "inputs": [],
      "name": "getPlayers",
      "outputs": [
        {
          "internalType": "address payable[]",
          "name": "",
          "type": "address[]"
        }
      ],
      "stateMutability": "view",
      "type": "function"
    },
    {
      "inputs": [],
      "name": "getRaffleState",
      "outputs": [
        {
          "internalType": "enum Raffle.RaffleState",
          "name": "",
          "type": "uint8"
        }
      ],
      "stateMutability": "view",
      "type": "function"
    },
    {
      "inputs": [],
      "name": "getRecentWinner",
      "outputs": [
        {
          "internalType": "address",
          "name": "",
          "type": "address"
        }
      ],
      "stateMutability": "view",
      "type": "function"
    },
    {
      "inputs": [],
      "name": "getRequestConfirmations",
      "outputs": [
        {
          "internalType": "uint256",
          "name": "",
          "type": "uint256"
        }
      ],
      "stateMutability": "pure",
      "type": "function"
    },
    {
      "inputs": [
        {
          "internalType": "bytes",
          "name": "",
          "type": "bytes"
        }
      ],
      "name": "performUpkeep",
      "outputs": [],
      "stateMutability": "nonpayable",
      "type": "function"
    },
    {
      "inputs": [
        {
          "internalType": "uint256",
          "name": "requestId",
          "type": "uint256"
        },
        {
          "internalType": "uint256[]",
          "name": "randomWords",
          "type": "uint256[]"
        }
      ],
      "name": "rawFulfillRandomWords",
      "outputs": [],
      "stateMutability": "nonpayable",
      "type": "function"
    }
  ],
  "transactionHash": "0x6a046efa85e802e5872cee650c4da6001434ea10adade7cd81ab646296269b80",
  "args": [
    "0x2Ca8E0C643bDe4C2E08ab1fA0da3401AdAD7734D",
    "10000000000000000",
    "0x79d3d8832d904592c0bf9818b621522c988bb8b0c05cdc3b15aea1b6e8db0c15",
    "3447",
    "500000",
    "120"
  ],
  "numDeployments": 2,
  "solcInputHash": "eea385408a405d68beae803c0ec28855",
  "bytecode": "0x6101606040523480156200001257600080fd5b5060405162001d3c38038062001d3c833981810160405281019062000038919062000294565b858073ffffffffffffffffffffffffffffffffffffffff1660808173ffffffffffffffffffffffffffffffffffffffff1681525050508460a081815250508573ffffffffffffffffffffffffffffffffffffffff1660c08173ffffffffffffffffffffffffffffffffffffffff16815250508360e081815250508267ffffffffffffffff166101008167ffffffffffffffff16815250508163ffffffff166101208163ffffffff16815250506000600160146101000a81548160ff021916908360018111156200010d576200010c62000330565b5b0217905550426002819055508061014081815250505050505050506200035f565b600080fd5b600073ffffffffffffffffffffffffffffffffffffffff82169050919050565b6000620001608262000133565b9050919050565b620001728162000153565b81146200017e57600080fd5b50565b600081519050620001928162000167565b92915050565b6000819050919050565b620001ad8162000198565b8114620001b957600080fd5b50565b600081519050620001cd81620001a2565b92915050565b6000819050919050565b620001e881620001d3565b8114620001f457600080fd5b50565b6000815190506200020881620001dd565b92915050565b600067ffffffffffffffff82169050919050565b6200022d816200020e565b81146200023957600080fd5b50565b6000815190506200024d8162000222565b92915050565b600063ffffffff82169050919050565b6200026e8162000253565b81146200027a57600080fd5b50565b6000815190506200028e8162000263565b92915050565b60008060008060008060c08789031215620002b457620002b36200012e565b5b6000620002c489828a0162000181565b9650506020620002d789828a01620001bc565b9550506040620002ea89828a01620001f7565b9450506060620002fd89828a016200023c565b93505060806200031089828a016200027d565b92505060a06200032389828a01620001bc565b9150509295509295509295565b7f4e487b7100000000000000000000000000000000000000000000000000000000600052602160045260246000fd5b60805160a05160c05160e051610100516101205161014051611966620003d660003960008181610513015281816108c80152610afe01526000610786015260006107630152600061074201526000610706015260008181610340015261043d01526000818161037d01526103d101526119666000f3fe6080604052600436106100dd5760003560e01c806353a2c19a1161007f5780638b5b9ccc116100595780638b5b9ccc1461027e57806391ad27b4146102a9578063e55ae4e8146102d4578063fd6673f514610311576100dd565b806353a2c19a146101ea5780635f1b0fd8146102155780636e04ff0d14610240576100dd565b80632cfcc539116100bb5780632cfcc53914610161578063320229eb1461016b5780634585e33b14610196578063473f1ddc146101bf576100dd565b806309bc33a7146100e2578063115cbaf51461010d5780631fe543e314610138575b600080fd5b3480156100ee57600080fd5b506100f761033c565b6040516101049190610f79565b60405180910390f35b34801561011957600080fd5b50610122610364565b60405161012f919061100b565b60405180910390f35b34801561014457600080fd5b5061015f600480360381019061015a91906111bf565b61037b565b005b61016961043b565b005b34801561017757600080fd5b506101806105f7565b60405161018d9190610f79565b60405180910390f35b3480156101a257600080fd5b506101bd60048036038101906101b89190611276565b610601565b005b3480156101cb57600080fd5b506101d461083f565b6040516101e19190611304565b60405180910390f35b3480156101f657600080fd5b506101ff610869565b60405161020c9190610f79565b60405180910390f35b34801561022157600080fd5b5061022a610878565b6040516102379190610f79565b60405180910390f35b34801561024c57600080fd5b50610267600480360381019061026291906113d4565b610885565b6040516102759291906114b7565b60405180910390f35b34801561028a57600080fd5b50610293610a2e565b6040516102a091906115b7565b60405180910390f35b3480156102b557600080fd5b506102be610afa565b6040516102cb9190610f79565b60405180910390f35b3480156102e057600080fd5b506102fb60048036038101906102f691906115d9565b610b22565b6040516103089190611304565b60405180910390f35b34801561031d57600080fd5b50610326610b69565b6040516103339190610f79565b60405180910390f35b60007f0000000000000000000000000000000000000000000000000000000000000000905090565b6000600160149054906101000a900460ff16905090565b7f000000000000000000000000000000000000000000000000000000000000000073ffffffffffffffffffffffffffffffffffffffff163373ffffffffffffffffffffffffffffffffffffffff161461042d57337f00000000000000000000000000000000000000000000000000000000000000006040517f1cf993f4000000000000000000000000000000000000000000000000000000008152600401610424929190611606565b60405180910390fd5b6104378282610b75565b5050565b7f0000000000000000000000000000000000000000000000000000000000000000341015610495576040517fbd4e069500000000000000000000000000000000000000000000000000000000815260040160405180910390fd5b600060018111156104a9576104a8610f94565b5b600160149054906101000a900460ff1660018111156104cb576104ca610f94565b5b14610502576040517f1425571c00000000000000000000000000000000000000000000000000000000815260040160405180910390fd5b6000808054905014801561054257507f000000000000000000000000000000000000000000000000000000000000000060025442610540919061165e565b115b1561054f57426002819055505b6000339080600181540180825580915050600190039060005260206000200160009091909190916101000a81548173ffffffffffffffffffffffffffffffffffffffff021916908373ffffffffffffffffffffffffffffffffffffffff1602179055503373ffffffffffffffffffffffffffffffffffffffff167f0805e1d667bddb8a95f0f09880cf94f403fb596ce79928d9f29b74203ba284d460405160405180910390a2565b6000600254905090565b600061061b60405180602001604052806000815250610885565b5090508061068a5747600080549050600160149054906101000a900460ff16600181111561064c5761064b610f94565b5b6040517f584327aa00000000000000000000000000000000000000000000000000000000815260040161068193929190611692565b60405180910390fd5b60018060146101000a81548160ff021916908360018111156106af576106ae610f94565b5b0217905550600160149054906101000a900460ff1660018111156106d6576106d5610f94565b5b7f8cd53e1a61194edb411772b73338b7687d6ee082a49b0c84b911e701212336b160405160405180910390a260007f000000000000000000000000000000000000000000000000000000000000000073ffffffffffffffffffffffffffffffffffffffff16635d3b1d307f00000000000000000000000000000000000000000000000000000000000000007f000000000000000000000000000000000000000000000000000000000000000060037f000000000000000000000000000000000000000000000000000000000000000060016040518663ffffffff1660e01b81526004016107c7959493929190611741565b6020604051808303816000875af11580156107e6573d6000803e3d6000fd5b505050506040513d601f19601f8201168201806040525081019061080a91906117a9565b9050807fcd6e45c8998311cab7e9d4385596cac867e20a0587194b954fa3a731c93ce78b60405160405180910390a250505050565b6000600160009054906101000a900473ffffffffffffffffffffffffffffffffffffffff16905090565b6000600163ffffffff16905090565b6000600361ffff16905090565b600060606000600160149054906101000a900460ff1660018111156108ad576108ac610f94565b5b600060018111156108c1576108c0610f94565b5b14905060007f0000000000000000000000000000000000000000000000000000000000000000600254426108f5919061165e565b1190506000806000805490501190506000804711905061094a6040518060400160405280600681526020017f69736f70656e000000000000000000000000000000000000000000000000000081525085610df4565b6109896040518060400160405280600a81526020017f74696d655061737365640000000000000000000000000000000000000000000081525084610df4565b6109c86040518060400160405280600a81526020017f686173506c61796572730000000000000000000000000000000000000000000081525083610df4565b610a076040518060400160405280600a81526020017f68617342616c616e63650000000000000000000000000000000000000000000081525082610df4565b838015610a115750825b8015610a1a5750815b8015610a235750805b955050505050915091565b60606000808054905003610a6e576040517fe2bf358900000000000000000000000000000000000000000000000000000000815260040160405180910390fd5b6000805480602002602001604051908101604052809291908181526020018280548015610af057602002820191906000526020600020905b8160009054906101000a900473ffffffffffffffffffffffffffffffffffffffff1673ffffffffffffffffffffffffffffffffffffffff1681526020019060010190808311610aa6575b5050505050905090565b60007f0000000000000000000000000000000000000000000000000000000000000000905090565b6000808281548110610b3757610b366117d6565b5b9060005260206000200160009054906101000a900473ffffffffffffffffffffffffffffffffffffffff169050919050565b60008080549050905090565b6000808054905082600081518110610b9057610b8f6117d6565b5b6020026020010151610ba29190611834565b90506000808281548110610bb957610bb86117d6565b5b9060005260206000200160009054906101000a900473ffffffffffffffffffffffffffffffffffffffff16905080600160006101000a81548173ffffffffffffffffffffffffffffffffffffffff021916908373ffffffffffffffffffffffffffffffffffffffff1602179055506000600160146101000a81548160ff02191690836001811115610c4d57610c4c610f94565b5b0217905550600160149054906101000a900460ff166001811115610c7457610c73610f94565b5b7f8cd53e1a61194edb411772b73338b7687d6ee082a49b0c84b911e701212336b160405160405180910390a2600067ffffffffffffffff811115610cbb57610cba61107c565b5b604051908082528060200260200182016040528015610ce95781602001602082028036833780820191505090505b5060009080519060200190610cff929190610eb9565b504260028190555060008173ffffffffffffffffffffffffffffffffffffffff1647604051610d2d90611896565b60006040518083038185875af1925050503d8060008114610d6a576040519150601f19603f3d011682016040523d82523d6000602084013e610d6f565b606091505b5050905080610daa576040517fa1d04b3900000000000000000000000000000000000000000000000000000000815260040160405180910390fd5b8173ffffffffffffffffffffffffffffffffffffffff167f5b690ec4a06fe979403046eaeea5b3ce38524683c3001f662c8b5a829632f7df60405160405180910390a25050505050565b610e8c8282604051602401610e0a929190611900565b6040516020818303038152906040527fc3b55635000000000000000000000000000000000000000000000000000000007bffffffffffffffffffffffffffffffffffffffffffffffffffffffff19166020820180517bffffffffffffffffffffffffffffffffffffffffffffffffffffffff8381831617835250505050610e90565b5050565b60008151905060006a636f6e736f6c652e6c6f679050602083016000808483855afa5050505050565b828054828255906000526020600020908101928215610f32579160200282015b82811115610f315782518260006101000a81548173ffffffffffffffffffffffffffffffffffffffff021916908373ffffffffffffffffffffffffffffffffffffffff16021790555091602001919060010190610ed9565b5b509050610f3f9190610f43565b5090565b5b80821115610f5c576000816000905550600101610f44565b5090565b6000819050919050565b610f7381610f60565b82525050565b6000602082019050610f8e6000830184610f6a565b92915050565b7f4e487b7100000000000000000000000000000000000000000000000000000000600052602160045260246000fd5b60028110610fd457610fd3610f94565b5b50565b6000819050610fe582610fc3565b919050565b6000610ff582610fd7565b9050919050565b61100581610fea565b82525050565b60006020820190506110206000830184610ffc565b92915050565b6000604051905090565b600080fd5b600080fd5b61104381610f60565b811461104e57600080fd5b50565b6000813590506110608161103a565b92915050565b600080fd5b6000601f19601f8301169050919050565b7f4e487b7100000000000000000000000000000000000000000000000000000000600052604160045260246000fd5b6110b48261106b565b810181811067ffffffffffffffff821117156110d3576110d261107c565b5b80604052505050565b60006110e6611026565b90506110f282826110ab565b919050565b600067ffffffffffffffff8211156111125761111161107c565b5b602082029050602081019050919050565b600080fd5b600061113b611136846110f7565b6110dc565b9050808382526020820190506020840283018581111561115e5761115d611123565b5b835b8181101561118757806111738882611051565b845260208401935050602081019050611160565b5050509392505050565b600082601f8301126111a6576111a5611066565b5b81356111b6848260208601611128565b91505092915050565b600080604083850312156111d6576111d5611030565b5b60006111e485828601611051565b925050602083013567ffffffffffffffff81111561120557611204611035565b5b61121185828601611191565b9150509250929050565b600080fd5b60008083601f84011261123657611235611066565b5b8235905067ffffffffffffffff8111156112535761125261121b565b5b60208301915083600182028301111561126f5761126e611123565b5b9250929050565b6000806020838503121561128d5761128c611030565b5b600083013567ffffffffffffffff8111156112ab576112aa611035565b5b6112b785828601611220565b92509250509250929050565b600073ffffffffffffffffffffffffffffffffffffffff82169050919050565b60006112ee826112c3565b9050919050565b6112fe816112e3565b82525050565b600060208201905061131960008301846112f5565b92915050565b600080fd5b600067ffffffffffffffff82111561133f5761133e61107c565b5b6113488261106b565b9050602081019050919050565b82818337600083830152505050565b600061137761137284611324565b6110dc565b9050828152602081018484840111156113935761139261131f565b5b61139e848285611355565b509392505050565b600082601f8301126113bb576113ba611066565b5b81356113cb848260208601611364565b91505092915050565b6000602082840312156113ea576113e9611030565b5b600082013567ffffffffffffffff81111561140857611407611035565b5b611414848285016113a6565b91505092915050565b60008115159050919050565b6114328161141d565b82525050565b600081519050919050565b600082825260208201905092915050565b60005b83811015611472578082015181840152602081019050611457565b60008484015250505050565b600061148982611438565b6114938185611443565b93506114a3818560208601611454565b6114ac8161106b565b840191505092915050565b60006040820190506114cc6000830185611429565b81810360208301526114de818461147e565b90509392505050565b600081519050919050565b600082825260208201905092915050565b6000819050602082019050919050565b600061151e826112c3565b9050919050565b61152e81611513565b82525050565b60006115408383611525565b60208301905092915050565b6000602082019050919050565b6000611564826114e7565b61156e81856114f2565b935061157983611503565b8060005b838110156115aa5781516115918882611534565b975061159c8361154c565b92505060018101905061157d565b5085935050505092915050565b600060208201905081810360008301526115d18184611559565b905092915050565b6000602082840312156115ef576115ee611030565b5b60006115fd84828501611051565b91505092915050565b600060408201905061161b60008301856112f5565b61162860208301846112f5565b9392505050565b7f4e487b7100000000000000000000000000000000000000000000000000000000600052601160045260246000fd5b600061166982610f60565b915061167483610f60565b925082820390508181111561168c5761168b61162f565b5b92915050565b60006060820190506116a76000830186610f6a565b6116b46020830185610f6a565b6116c16040830184610f6a565b949350505050565b6000819050919050565b6116dc816116c9565b82525050565b600067ffffffffffffffff82169050919050565b6116ff816116e2565b82525050565b600061ffff82169050919050565b61171c81611705565b82525050565b600063ffffffff82169050919050565b61173b81611722565b82525050565b600060a08201905061175660008301886116d3565b61176360208301876116f6565b6117706040830186611713565b61177d6060830185611732565b61178a6080830184611732565b9695505050505050565b6000815190506117a38161103a565b92915050565b6000602082840312156117bf576117be611030565b5b60006117cd84828501611794565b91505092915050565b7f4e487b7100000000000000000000000000000000000000000000000000000000600052603260045260246000fd5b7f4e487b7100000000000000000000000000000000000000000000000000000000600052601260045260246000fd5b600061183f82610f60565b915061184a83610f60565b92508261185a57611859611805565b5b828206905092915050565b600081905092915050565b50565b6000611880600083611865565b915061188b82611870565b600082019050919050565b60006118a182611873565b9150819050919050565b600081519050919050565b600082825260208201905092915050565b60006118d2826118ab565b6118dc81856118b6565b93506118ec818560208601611454565b6118f58161106b565b840191505092915050565b6000604082019050818103600083015261191a81856118c7565b90506119296020830184611429565b939250505056fea26469706673582212207c41863e47afba41bc9005c1b42159c8bc45fbf94b3bcfc91b59aab60f05ae0664736f6c63430008110033",
  "devdoc": {
    "author": "Benjamin Anoufa",
    "details": "this implements Chainlink VRF v2 and Chainlink keepers ",
    "kind": "dev",
    "methods": {
      "checkUpkeep(bytes)": {
        "details": "This is the function that the ChainLink Keeper node call They look for the 'upKeepNeeded' to return true The following should be true in order to return true 1. our time interval should have passed 2. The lottery should have at least 1 player, and have some ETH 3. Our subscription is funded with LINK 4. The lottery should be in an \"open\" state"
      }
    },
    "title": "A sample Raffle Contract",
    "version": 1
  },
  "userdoc": {
    "kind": "user",
    "methods": {},
    "notice": "This contract is for creating a untamperable decentralized smart contract",
    "version": 1
  },
  "storageLayout": {
    "storage": [
      {
        "astId": 200,
        "contract": "contracts/Raffle.sol:Raffle",
        "label": "s_players",
        "offset": 0,
        "slot": "0",
        "type": "t_array(t_address_payable)dyn_storage"
      },
      {
        "astId": 217,
        "contract": "contracts/Raffle.sol:Raffle",
        "label": "s_recentWinner",
        "offset": 0,
        "slot": "1",
        "type": "t_address"
      },
      {
        "astId": 220,
        "contract": "contracts/Raffle.sol:Raffle",
        "label": "s_raffleState",
        "offset": 20,
        "slot": "1",
        "type": "t_enum(RaffleState)195"
      },
      {
        "astId": 222,
        "contract": "contracts/Raffle.sol:Raffle",
        "label": "s_lastTimeStamp",
        "offset": 0,
        "slot": "2",
        "type": "t_uint256"
      }
    ],
    "types": {
      "t_address": {
        "encoding": "inplace",
        "label": "address",
        "numberOfBytes": "20"
      },
      "t_address_payable": {
        "encoding": "inplace",
        "label": "address payable",
        "numberOfBytes": "20"
      },
      "t_array(t_address_payable)dyn_storage": {
        "base": "t_address_payable",
        "encoding": "dynamic_array",
        "label": "address payable[]",
        "numberOfBytes": "32"
      },
      "t_enum(RaffleState)195": {
        "encoding": "inplace",
        "label": "enum Raffle.RaffleState",
        "numberOfBytes": "1"
      },
      "t_uint256": {
        "encoding": "inplace",
        "label": "uint256",
        "numberOfBytes": "32"
      }
    }
  }
}